{
  "contractName": "MyToken",
  "abi": [
    {
      "inputs": [
        {
          "internalType": "string",
          "name": "_name",
          "type": "string"
        },
        {
          "internalType": "string",
          "name": "_symbol",
          "type": "string"
        }
      ],
      "stateMutability": "nonpayable",
      "type": "constructor"
    },
    {
      "anonymous": false,
      "inputs": [
        {
          "indexed": true,
          "internalType": "address",
          "name": "owner",
          "type": "address"
        },
        {
          "indexed": true,
          "internalType": "address",
          "name": "spender",
          "type": "address"
        },
        {
          "indexed": false,
          "internalType": "uint256",
          "name": "value",
          "type": "uint256"
        }
      ],
      "name": "Approval",
      "type": "event"
    },
    {
      "anonymous": false,
      "inputs": [
        {
          "indexed": true,
          "internalType": "address",
          "name": "from",
          "type": "address"
        },
        {
          "indexed": true,
          "internalType": "address",
          "name": "to",
          "type": "address"
        },
        {
          "indexed": false,
          "internalType": "uint256",
          "name": "value",
          "type": "uint256"
        }
      ],
      "name": "Transfer",
      "type": "event"
    },
    {
      "inputs": [],
      "name": "adminAddress",
      "outputs": [
        {
          "internalType": "address",
          "name": "",
          "type": "address"
        }
      ],
      "stateMutability": "view",
      "type": "function",
      "constant": true
    },
    {
      "inputs": [
        {
          "internalType": "address",
          "name": "owner",
          "type": "address"
        },
        {
          "internalType": "address",
          "name": "spender",
          "type": "address"
        }
      ],
      "name": "allowance",
      "outputs": [
        {
          "internalType": "uint256",
          "name": "",
          "type": "uint256"
        }
      ],
      "stateMutability": "view",
      "type": "function",
      "constant": true
    },
    {
      "inputs": [
        {
          "internalType": "address",
          "name": "spender",
          "type": "address"
        },
        {
          "internalType": "uint256",
          "name": "amount",
          "type": "uint256"
        }
      ],
      "name": "approve",
      "outputs": [
        {
          "internalType": "bool",
          "name": "",
          "type": "bool"
        }
      ],
      "stateMutability": "nonpayable",
      "type": "function"
    },
    {
      "inputs": [
        {
          "internalType": "address",
          "name": "account",
          "type": "address"
        }
      ],
      "name": "balanceOf",
      "outputs": [
        {
          "internalType": "uint256",
          "name": "",
          "type": "uint256"
        }
      ],
      "stateMutability": "view",
      "type": "function",
      "constant": true
    },
    {
      "inputs": [],
      "name": "decimals",
      "outputs": [
        {
          "internalType": "uint8",
          "name": "",
          "type": "uint8"
        }
      ],
      "stateMutability": "view",
      "type": "function",
      "constant": true
    },
    {
      "inputs": [
        {
          "internalType": "address",
          "name": "spender",
          "type": "address"
        },
        {
          "internalType": "uint256",
          "name": "subtractedValue",
          "type": "uint256"
        }
      ],
      "name": "decreaseAllowance",
      "outputs": [
        {
          "internalType": "bool",
          "name": "",
          "type": "bool"
        }
      ],
      "stateMutability": "nonpayable",
      "type": "function"
    },
    {
      "inputs": [
        {
          "internalType": "address",
          "name": "spender",
          "type": "address"
        },
        {
          "internalType": "uint256",
          "name": "addedValue",
          "type": "uint256"
        }
      ],
      "name": "increaseAllowance",
      "outputs": [
        {
          "internalType": "bool",
          "name": "",
          "type": "bool"
        }
      ],
      "stateMutability": "nonpayable",
      "type": "function"
    },
    {
      "inputs": [],
      "name": "name",
      "outputs": [
        {
          "internalType": "string",
          "name": "",
          "type": "string"
        }
      ],
      "stateMutability": "view",
      "type": "function",
      "constant": true
    },
    {
      "inputs": [],
      "name": "symbol",
      "outputs": [
        {
          "internalType": "string",
          "name": "",
          "type": "string"
        }
      ],
      "stateMutability": "view",
      "type": "function",
      "constant": true
    },
    {
      "inputs": [],
      "name": "totalSupply",
      "outputs": [
        {
          "internalType": "uint256",
          "name": "",
          "type": "uint256"
        }
      ],
      "stateMutability": "view",
      "type": "function",
      "constant": true
    },
    {
      "inputs": [
        {
          "internalType": "address",
          "name": "recipient",
          "type": "address"
        },
        {
          "internalType": "uint256",
          "name": "amount",
          "type": "uint256"
        }
      ],
      "name": "transfer",
      "outputs": [
        {
          "internalType": "bool",
          "name": "",
          "type": "bool"
        }
      ],
      "stateMutability": "nonpayable",
      "type": "function"
    },
    {
      "inputs": [
        {
          "internalType": "address",
          "name": "sender",
          "type": "address"
        },
        {
          "internalType": "address",
          "name": "recipient",
          "type": "address"
        },
        {
          "internalType": "uint256",
          "name": "amount",
          "type": "uint256"
        }
      ],
      "name": "transferFrom",
      "outputs": [
        {
          "internalType": "bool",
          "name": "",
          "type": "bool"
        }
      ],
      "stateMutability": "nonpayable",
      "type": "function"
    },
    {
      "inputs": [
        {
          "internalType": "address",
          "name": "to",
          "type": "address"
        },
        {
          "internalType": "uint256",
          "name": "amount",
          "type": "uint256"
        }
      ],
      "name": "mint",
      "outputs": [],
      "stateMutability": "nonpayable",
      "type": "function"
    },
    {
      "inputs": [
        {
          "internalType": "uint256",
          "name": "amount",
          "type": "uint256"
        }
      ],
      "name": "burn",
      "outputs": [],
      "stateMutability": "nonpayable",
      "type": "function"
    }
  ],
  "bytecode": "0x60806040523480156200001157600080fd5b50604051620021c4380380620021c483398181016040528101906200003791906200037b565b81818160039080519060200190620000519291906200024d565b5080600490805190602001906200006a9291906200024d565b50505062000091336801158e460913d00000620000da640100000000026401000000009004565b33600560006101000a81548173ffffffffffffffffffffffffffffffffffffffff021916908373ffffffffffffffffffffffffffffffffffffffff1602179055505050620006cb565b600073ffffffffffffffffffffffffffffffffffffffff168273ffffffffffffffffffffffffffffffffffffffff1614156200014d576040517f08c379a0000000000000000000000000000000000000000000000000000000008152600401620001449062000438565b60405180910390fd5b6200016a6000838362000248640100000000026401000000009004565b80600260008282546200017e9190620004e7565b92505081905550806000808473ffffffffffffffffffffffffffffffffffffffff1673ffffffffffffffffffffffffffffffffffffffff1681526020019081526020016000206000828254620001d59190620004e7565b925050819055508173ffffffffffffffffffffffffffffffffffffffff16600073ffffffffffffffffffffffffffffffffffffffff167fddf252ad1be2c89b69c2b068fc378daa952ba7f163c4a11628f55a4df523b3ef836040516200023c91906200045a565b60405180910390a35050565b505050565b8280546200025b9062000584565b90600052602060002090601f0160209004810192826200027f5760008555620002cb565b82601f106200029a57805160ff1916838001178555620002cb565b82800160010185558215620002cb579182015b82811115620002ca578251825591602001919060010190620002ad565b5b509050620002da9190620002de565b5090565b5b80821115620002f9576000816000905550600101620002df565b5090565b6000620003146200030e84620004a0565b62000477565b90508281526020810184848401111562000333576200033262000682565b5b620003408482856200054e565b509392505050565b600082601f83011262000360576200035f6200067d565b5b815162000372848260208601620002fd565b91505092915050565b600080604083850312156200039557620003946200068c565b5b600083015167ffffffffffffffff811115620003b657620003b562000687565b5b620003c48582860162000348565b925050602083015167ffffffffffffffff811115620003e857620003e762000687565b5b620003f68582860162000348565b9150509250929050565b60006200040f601f83620004d6565b91506200041c82620006a2565b602082019050919050565b620004328162000544565b82525050565b60006020820190508181036000830152620004538162000400565b9050919050565b600060208201905062000471600083018462000427565b92915050565b60006200048362000496565b9050620004918282620005ba565b919050565b6000604051905090565b600067ffffffffffffffff821115620004be57620004bd6200064e565b5b620004c98262000691565b9050602081019050919050565b600082825260208201905092915050565b6000620004f48262000544565b9150620005018362000544565b9250827fffffffffffffffffffffffffffffffffffffffffffffffffffffffffffffffff03821115620005395762000538620005f0565b5b828201905092915050565b6000819050919050565b60005b838110156200056e57808201518184015260208101905062000551565b838111156200057e576000848401525b50505050565b600060028204905060018216806200059d57607f821691505b60208210811415620005b457620005b36200061f565b5b50919050565b620005c58262000691565b810181811067ffffffffffffffff82111715620005e757620005e66200064e565b5b80604052505050565b7f4e487b7100000000000000000000000000000000000000000000000000000000600052601160045260246000fd5b7f4e487b7100000000000000000000000000000000000000000000000000000000600052602260045260246000fd5b7f4e487b7100000000000000000000000000000000000000000000000000000000600052604160045260246000fd5b600080fd5b600080fd5b600080fd5b600080fd5b6000601f19601f8301169050919050565b7f45524332303a206d696e7420746f20746865207a65726f206164647265737300600082015250565b611ae980620006db6000396000f3fe608060405234801561001057600080fd5b5060043610610107576000357c01000000000000000000000000000000000000000000000000000000009004806342966c68116100a9578063a457c2d711610083578063a457c2d71461027c578063a9059cbb146102ac578063dd62ed3e146102dc578063fc6f94681461030c57610107565b806342966c681461021257806370a082311461022e57806395d89b411461025e57610107565b806323b872dd116100e557806323b872dd14610178578063313ce567146101a857806339509351146101c657806340c10f19146101f657610107565b806306fdde031461010c578063095ea7b31461012a57806318160ddd1461015a575b600080fd5b61011461032a565b60405161012191906113e0565b60405180910390f35b610144600480360381019061013f9190611147565b6103bc565b60405161015191906113c5565b60405180910390f35b6101626103da565b60405161016f9190611562565b60405180910390f35b610192600480360381019061018d91906110f4565b6103e4565b60405161019f91906113c5565b60405180910390f35b6101b06104e5565b6040516101bd919061157d565b60405180910390f35b6101e060048036038101906101db9190611147565b6104ee565b6040516101ed91906113c5565b60405180910390f35b610210600480360381019061020b9190611147565b61059a565b005b61022c60048036038101906102279190611187565b610638565b005b61024860048036038101906102439190611087565b610645565b6040516102559190611562565b60405180910390f35b61026661068d565b60405161027391906113e0565b60405180910390f35b61029660048036038101906102919190611147565b61071f565b6040516102a391906113c5565b60405180910390f35b6102c660048036038101906102c19190611147565b610813565b6040516102d391906113c5565b60405180910390f35b6102f660048036038101906102f191906110b4565b610831565b6040516103039190611562565b60405180910390f35b6103146108b8565b60405161032191906113aa565b60405180910390f35b606060038054610339906116c6565b80601f0160208091040260200160405190810160405280929190818152602001828054610365906116c6565b80156103b25780601f10610387576101008083540402835291602001916103b2565b820191906000526020600020905b81548152906001019060200180831161039557829003601f168201915b5050505050905090565b60006103d06103c96108de565b84846108e6565b6001905092915050565b6000600254905090565b60006103f1848484610ab1565b6000600160008673ffffffffffffffffffffffffffffffffffffffff1673ffffffffffffffffffffffffffffffffffffffff168152602001908152602001600020600061043c6108de565b73ffffffffffffffffffffffffffffffffffffffff1673ffffffffffffffffffffffffffffffffffffffff168152602001908152602001600020549050828110156104bc576040517f08c379a00000000000000000000000000000000000000000000000000000000081526004016104b3906114a2565b60405180910390fd5b6104d9856104c86108de565b85846104d4919061160a565b6108e6565b60019150509392505050565b60006012905090565b60006105906104fb6108de565b8484600160006105096108de565b73ffffffffffffffffffffffffffffffffffffffff1673ffffffffffffffffffffffffffffffffffffffff16815260200190815260200160002060008873ffffffffffffffffffffffffffffffffffffffff1673ffffffffffffffffffffffffffffffffffffffff1681526020019081526020016000205461058b91906115b4565b6108e6565b6001905092915050565b600560009054906101000a900473ffffffffffffffffffffffffffffffffffffffff1673ffffffffffffffffffffffffffffffffffffffff163373ffffffffffffffffffffffffffffffffffffffff161461062a576040517f08c379a000000000000000000000000000000000000000000000000000000000815260040161062190611482565b60405180910390fd5b6106348282610d30565b5050565b6106423382610e84565b50565b60008060008373ffffffffffffffffffffffffffffffffffffffff1673ffffffffffffffffffffffffffffffffffffffff168152602001908152602001600020549050919050565b60606004805461069c906116c6565b80601f01602080910402602001604051908101604052809291908181526020018280546106c8906116c6565b80156107155780601f106106ea57610100808354040283529160200191610715565b820191906000526020600020905b8154815290600101906020018083116106f857829003601f168201915b5050505050905090565b6000806001600061072e6108de565b73ffffffffffffffffffffffffffffffffffffffff1673ffffffffffffffffffffffffffffffffffffffff16815260200190815260200160002060008573ffffffffffffffffffffffffffffffffffffffff1673ffffffffffffffffffffffffffffffffffffffff168152602001908152602001600020549050828110156107eb576040517f08c379a00000000000000000000000000000000000000000000000000000000081526004016107e290611522565b60405180910390fd5b6108086107f66108de565b858584610803919061160a565b6108e6565b600191505092915050565b60006108276108206108de565b8484610ab1565b6001905092915050565b6000600160008473ffffffffffffffffffffffffffffffffffffffff1673ffffffffffffffffffffffffffffffffffffffff16815260200190815260200160002060008373ffffffffffffffffffffffffffffffffffffffff1673ffffffffffffffffffffffffffffffffffffffff16815260200190815260200160002054905092915050565b600560009054906101000a900473ffffffffffffffffffffffffffffffffffffffff1681565b600033905090565b600073ffffffffffffffffffffffffffffffffffffffff168373ffffffffffffffffffffffffffffffffffffffff161415610956576040517f08c379a000000000000000000000000000000000000000000000000000000000815260040161094d90611502565b60405180910390fd5b600073ffffffffffffffffffffffffffffffffffffffff168273ffffffffffffffffffffffffffffffffffffffff1614156109c6576040517f08c379a00000000000000000000000000000000000000000000000000000000081526004016109bd90611442565b60405180910390fd5b80600160008573ffffffffffffffffffffffffffffffffffffffff1673ffffffffffffffffffffffffffffffffffffffff16815260200190815260200160002060008473ffffffffffffffffffffffffffffffffffffffff1673ffffffffffffffffffffffffffffffffffffffff168152602001908152602001600020819055508173ffffffffffffffffffffffffffffffffffffffff168373ffffffffffffffffffffffffffffffffffffffff167f8c5be1e5ebec7d5bd14f71427d1e84f3dd0314c0f7b2291e5b200ac8c7c3b92583604051610aa49190611562565b60405180910390a3505050565b600073ffffffffffffffffffffffffffffffffffffffff168373ffffffffffffffffffffffffffffffffffffffff161415610b21576040517f08c379a0000000000000000000000000000000000000000000000000000000008152600401610b18906114e2565b60405180910390fd5b600073ffffffffffffffffffffffffffffffffffffffff168273ffffffffffffffffffffffffffffffffffffffff161415610b91576040517f08c379a0000000000000000000000000000000000000000000000000000000008152600401610b8890611402565b60405180910390fd5b610b9c838383611058565b60008060008573ffffffffffffffffffffffffffffffffffffffff1673ffffffffffffffffffffffffffffffffffffffff16815260200190815260200160002054905081811015610c22576040517f08c379a0000000000000000000000000000000000000000000000000000000008152600401610c1990611462565b60405180910390fd5b8181610c2e919061160a565b6000808673ffffffffffffffffffffffffffffffffffffffff1673ffffffffffffffffffffffffffffffffffffffff16815260200190815260200160002081905550816000808573ffffffffffffffffffffffffffffffffffffffff1673ffffffffffffffffffffffffffffffffffffffff1681526020019081526020016000206000828254610cbe91906115b4565b925050819055508273ffffffffffffffffffffffffffffffffffffffff168473ffffffffffffffffffffffffffffffffffffffff167fddf252ad1be2c89b69c2b068fc378daa952ba7f163c4a11628f55a4df523b3ef84604051610d229190611562565b60405180910390a350505050565b600073ffffffffffffffffffffffffffffffffffffffff168273ffffffffffffffffffffffffffffffffffffffff161415610da0576040517f08c379a0000000000000000000000000000000000000000000000000000000008152600401610d9790611542565b60405180910390fd5b610dac60008383611058565b8060026000828254610dbe91906115b4565b92505081905550806000808473ffffffffffffffffffffffffffffffffffffffff1673ffffffffffffffffffffffffffffffffffffffff1681526020019081526020016000206000828254610e1391906115b4565b925050819055508173ffffffffffffffffffffffffffffffffffffffff16600073ffffffffffffffffffffffffffffffffffffffff167fddf252ad1be2c89b69c2b068fc378daa952ba7f163c4a11628f55a4df523b3ef83604051610e789190611562565b60405180910390a35050565b600073ffffffffffffffffffffffffffffffffffffffff168273ffffffffffffffffffffffffffffffffffffffff161415610ef4576040517f08c379a0000000000000000000000000000000000000000000000000000000008152600401610eeb906114c2565b60405180910390fd5b610f0082600083611058565b60008060008473ffffffffffffffffffffffffffffffffffffffff1673ffffffffffffffffffffffffffffffffffffffff16815260200190815260200160002054905081811015610f86576040517f08c379a0000000000000000000000000000000000000000000000000000000008152600401610f7d90611422565b60405180910390fd5b8181610f92919061160a565b6000808573ffffffffffffffffffffffffffffffffffffffff1673ffffffffffffffffffffffffffffffffffffffff168152602001908152602001600020819055508160026000828254610fe6919061160a565b92505081905550600073ffffffffffffffffffffffffffffffffffffffff168373ffffffffffffffffffffffffffffffffffffffff167fddf252ad1be2c89b69c2b068fc378daa952ba7f163c4a11628f55a4df523b3ef8460405161104b9190611562565b60405180910390a3505050565b505050565b60008135905061106c81611a85565b92915050565b60008135905061108181611a9c565b92915050565b60006020828403121561109d5761109c611756565b5b60006110ab8482850161105d565b91505092915050565b600080604083850312156110cb576110ca611756565b5b60006110d98582860161105d565b92505060206110ea8582860161105d565b9150509250929050565b60008060006060848603121561110d5761110c611756565b5b600061111b8682870161105d565b935050602061112c8682870161105d565b925050604061113d86828701611072565b9150509250925092565b6000806040838503121561115e5761115d611756565b5b600061116c8582860161105d565b925050602061117d85828601611072565b9150509250929050565b60006020828403121561119d5761119c611756565b5b60006111ab84828501611072565b91505092915050565b6111bd8161163e565b82525050565b6111cc81611650565b82525050565b60006111dd82611598565b6111e781856115a3565b93506111f7818560208601611693565b6112008161175b565b840191505092915050565b60006112186023836115a3565b91506112238261176c565b604082019050919050565b600061123b6022836115a3565b9150611246826117bb565b604082019050919050565b600061125e6022836115a3565b91506112698261180a565b604082019050919050565b60006112816026836115a3565b915061128c82611859565b604082019050919050565b60006112a46013836115a3565b91506112af826118a8565b602082019050919050565b60006112c76028836115a3565b91506112d2826118d1565b604082019050919050565b60006112ea6021836115a3565b91506112f582611920565b604082019050919050565b600061130d6025836115a3565b91506113188261196f565b604082019050919050565b60006113306024836115a3565b915061133b826119be565b604082019050919050565b60006113536025836115a3565b915061135e82611a0d565b604082019050919050565b6000611376601f836115a3565b915061138182611a5c565b602082019050919050565b6113958161167c565b82525050565b6113a481611686565b82525050565b60006020820190506113bf60008301846111b4565b92915050565b60006020820190506113da60008301846111c3565b92915050565b600060208201905081810360008301526113fa81846111d2565b905092915050565b6000602082019050818103600083015261141b8161120b565b9050919050565b6000602082019050818103600083015261143b8161122e565b9050919050565b6000602082019050818103600083015261145b81611251565b9050919050565b6000602082019050818103600083015261147b81611274565b9050919050565b6000602082019050818103600083015261149b81611297565b9050919050565b600060208201905081810360008301526114bb816112ba565b9050919050565b600060208201905081810360008301526114db816112dd565b9050919050565b600060208201905081810360008301526114fb81611300565b9050919050565b6000602082019050818103600083015261151b81611323565b9050919050565b6000602082019050818103600083015261153b81611346565b9050919050565b6000602082019050818103600083015261155b81611369565b9050919050565b6000602082019050611577600083018461138c565b92915050565b6000602082019050611592600083018461139b565b92915050565b600081519050919050565b600082825260208201905092915050565b60006115bf8261167c565b91506115ca8361167c565b9250827fffffffffffffffffffffffffffffffffffffffffffffffffffffffffffffffff038211156115ff576115fe6116f8565b5b828201905092915050565b60006116158261167c565b91506116208361167c565b925082821015611633576116326116f8565b5b828203905092915050565b60006116498261165c565b9050919050565b60008115159050919050565b600073ffffffffffffffffffffffffffffffffffffffff82169050919050565b6000819050919050565b600060ff82169050919050565b60005b838110156116b1578082015181840152602081019050611696565b838111156116c0576000848401525b50505050565b600060028204905060018216806116de57607f821691505b602082108114156116f2576116f1611727565b5b50919050565b7f4e487b7100000000000000000000000000000000000000000000000000000000600052601160045260246000fd5b7f4e487b7100000000000000000000000000000000000000000000000000000000600052602260045260246000fd5b600080fd5b6000601f19601f8301169050919050565b7f45524332303a207472616e7366657220746f20746865207a65726f206164647260008201527f6573730000000000000000000000000000000000000000000000000000000000602082015250565b7f45524332303a206275726e20616d6f756e7420657863656564732062616c616e60008201527f6365000000000000000000000000000000000000000000000000000000000000602082015250565b7f45524332303a20617070726f766520746f20746865207a65726f20616464726560008201527f7373000000000000000000000000000000000000000000000000000000000000602082015250565b7f45524332303a207472616e7366657220616d6f756e742065786365656473206260008201527f616c616e63650000000000000000000000000000000000000000000000000000602082015250565b7f4f6e6c792061646d696e2063616e206d696e7400000000000000000000000000600082015250565b7f45524332303a207472616e7366657220616d6f756e742065786365656473206160008201527f6c6c6f77616e6365000000000000000000000000000000000000000000000000602082015250565b7f45524332303a206275726e2066726f6d20746865207a65726f2061646472657360008201527f7300000000000000000000000000000000000000000000000000000000000000602082015250565b7f45524332303a207472616e736665722066726f6d20746865207a65726f20616460008201527f6472657373000000000000000000000000000000000000000000000000000000602082015250565b7f45524332303a20617070726f76652066726f6d20746865207a65726f2061646460008201527f7265737300000000000000000000000000000000000000000000000000000000602082015250565b7f45524332303a2064656372656173656420616c6c6f77616e63652062656c6f7760008201527f207a65726f000000000000000000000000000000000000000000000000000000602082015250565b7f45524332303a206d696e7420746f20746865207a65726f206164647265737300600082015250565b611a8e8161163e565b8114611a9957600080fd5b50565b611aa58161167c565b8114611ab057600080fd5b5056fea264697066735822122040113baa7bd51be9fb40b95021ccb19bd64ec3d9a49fd2010ca4941e3720c16864736f6c63430008050033",
  "immutableReferences": {},
  "source": "// SPDX-License-Identifier: MIT\npragma solidity ^0.8.5;\n\nimport \"openzeppelin-solidity/contracts/token/ERC20/ERC20.sol\";\n\ncontract MyToken is ERC20 {\n\taddress public adminAddress;\n\n\t constructor(string memory _name, string memory _symbol) ERC20(_name, _symbol) {\n\t\t _mint(msg.sender, 20 * 10 ** 18); \n\t\t adminAddress = msg.sender;\n\t }\n\n\t function mint(address to, uint amount) external {\n\t\t require(msg.sender == adminAddress, 'Only admin can mint');\n\t\t _mint(to, amount);\n\t }\n\n\t function burn(uint amount) external {\n\t\t _burn(msg.sender, amount);\n\t }\n}",
  "sourcePath": "/home/binod/projects/blockchain/erc-token/contracts/MyToken.sol",
  "compiler": {
    "name": "solc",
    "version": "0.8.5+commit.a4f2e591.Emscripten.clang"
  },
  "schemaVersion": "3.4.1",
  "updatedAt": "2021-06-21T02:54:05.954Z",
  "networkType": "ethereum",
  "devdoc": {
    "kind": "dev",
    "methods": {
      "allowance(address,address)": {
        "details": "See {IERC20-allowance}."
      },
      "approve(address,uint256)": {
        "details": "See {IERC20-approve}. Requirements: - `spender` cannot be the zero address."
      },
      "balanceOf(address)": {
        "details": "See {IERC20-balanceOf}."
      },
      "decimals()": {
        "details": "Returns the number of decimals used to get its user representation. For example, if `decimals` equals `2`, a balance of `505` tokens should be displayed to a user as `5,05` (`505 / 10 ** 2`). Tokens usually opt for a value of 18, imitating the relationship between Ether and Wei. This is the value {ERC20} uses, unless this function is overridden; NOTE: This information is only used for _display_ purposes: it in no way affects any of the arithmetic of the contract, including {IERC20-balanceOf} and {IERC20-transfer}."
      },
      "decreaseAllowance(address,uint256)": {
        "details": "Atomically decreases the allowance granted to `spender` by the caller. This is an alternative to {approve} that can be used as a mitigation for problems described in {IERC20-approve}. Emits an {Approval} event indicating the updated allowance. Requirements: - `spender` cannot be the zero address. - `spender` must have allowance for the caller of at least `subtractedValue`."
      },
      "increaseAllowance(address,uint256)": {
        "details": "Atomically increases the allowance granted to `spender` by the caller. This is an alternative to {approve} that can be used as a mitigation for problems described in {IERC20-approve}. Emits an {Approval} event indicating the updated allowance. Requirements: - `spender` cannot be the zero address."
      },
      "name()": {
        "details": "Returns the name of the token."
      },
      "symbol()": {
        "details": "Returns the symbol of the token, usually a shorter version of the name."
      },
      "totalSupply()": {
        "details": "See {IERC20-totalSupply}."
      },
      "transfer(address,uint256)": {
        "details": "See {IERC20-transfer}. Requirements: - `recipient` cannot be the zero address. - the caller must have a balance of at least `amount`."
      },
      "transferFrom(address,address,uint256)": {
        "details": "See {IERC20-transferFrom}. Emits an {Approval} event indicating the updated allowance. This is not required by the EIP. See the note at the beginning of {ERC20}. Requirements: - `sender` and `recipient` cannot be the zero address. - `sender` must have a balance of at least `amount`. - the caller must have allowance for ``sender``'s tokens of at least `amount`."
      }
    },
    "version": 1
  },
  "userdoc": {
    "kind": "user",
    "methods": {},
    "version": 1
  }
}